{
  "contractName": "ReverseRegistrar",
  "abi": [
    {
      "constant": true,
      "inputs": [],
      "name": "rns",
      "outputs": [
        {
          "name": "",
          "type": "address"
        }
      ],
      "payable": false,
      "stateMutability": "view",
      "type": "function"
    },
    {
      "constant": true,
      "inputs": [],
      "name": "ADDR_REVERSE_NODE",
      "outputs": [
        {
          "name": "",
          "type": "bytes32"
        }
      ],
      "payable": false,
      "stateMutability": "view",
      "type": "function"
    },
    {
      "inputs": [
        {
          "name": "rnsAddr",
          "type": "address"
        }
      ],
      "payable": false,
      "stateMutability": "nonpayable",
      "type": "constructor"
    },
    {
      "constant": false,
      "inputs": [
        {
          "name": "name",
          "type": "string"
        }
      ],
      "name": "setName",
      "outputs": [
        {
          "name": "node",
          "type": "bytes32"
        }
      ],
      "payable": false,
      "stateMutability": "nonpayable",
      "type": "function"
    },
    {
      "constant": false,
      "inputs": [
        {
          "name": "owner",
          "type": "address"
        }
      ],
      "name": "claim",
      "outputs": [
        {
          "name": "node",
          "type": "bytes32"
        }
      ],
      "payable": false,
      "stateMutability": "nonpayable",
      "type": "function"
    },
    {
      "constant": false,
      "inputs": [
        {
          "name": "owner",
          "type": "address"
        },
        {
          "name": "resolver",
          "type": "address"
        }
      ],
      "name": "claimWithResolver",
      "outputs": [
        {
          "name": "node",
          "type": "bytes32"
        }
      ],
      "payable": false,
      "stateMutability": "nonpayable",
      "type": "function"
    },
    {
      "constant": true,
      "inputs": [
        {
          "name": "addr",
          "type": "address"
        }
      ],
      "name": "node",
      "outputs": [
        {
          "name": "",
          "type": "bytes32"
        }
      ],
      "payable": false,
      "stateMutability": "pure",
      "type": "function"
    }
  ],
  "bytecode": "0x608060405234801561001057600080fd5b50604051602080610cab8339810180604052602081101561003057600080fd5b8101908080519060200190929190505050806000806101000a81548173ffffffffffffffffffffffffffffffffffffffff021916908373ffffffffffffffffffffffffffffffffffffffff16021790555050610c1a806100916000396000f3fe608060405234801561001057600080fd5b50600436106100625760003560e01c80630f5a5466146100675780631e83409a146100df578063663b44c5146101375780637cf8a2eb14610181578063bffbe61c1461019f578063c47f0027146101f7575b600080fd5b6100c96004803603604081101561007d57600080fd5b81019080803573ffffffffffffffffffffffffffffffffffffffff169060200190929190803573ffffffffffffffffffffffffffffffffffffffff1690602001909291905050506102c6565b6040518082815260200191505060405180910390f35b610121600480360360208110156100f557600080fd5b81019080803573ffffffffffffffffffffffffffffffffffffffff1690602001909291905050506107ec565b6040518082815260200191505060405180910390f35b61013f61093f565b604051808273ffffffffffffffffffffffffffffffffffffffff1673ffffffffffffffffffffffffffffffffffffffff16815260200191505060405180910390f35b610189610964565b6040518082815260200191505060405180910390f35b6101e1600480360360208110156101b557600080fd5b81019080803573ffffffffffffffffffffffffffffffffffffffff16906020019092919050505061098b565b6040518082815260200191505060405180910390f35b6102b06004803603602081101561020d57600080fd5b810190808035906020019064010000000081111561022a57600080fd5b82018360208201111561023c57600080fd5b8035906020019184600183028401116401000000008311171561025e57600080fd5b91908080601f016020809104026020016040519081016040528093929190818152602001838380828437600081840152601f19601f8201169050808301925050505050505091929192905050506109ee565b6040518082815260200191505060405180910390f35b6000806102d233610b84565b90507f91d1777781884d03a6757a803996e38de2a42967fb37eeaca72729271025a9e260001b8160405160200180838152602001828152602001925050506040516020818303038152906040528051906020012091503073ffffffffffffffffffffffffffffffffffffffff166000809054906101000a900473ffffffffffffffffffffffffffffffffffffffff1673ffffffffffffffffffffffffffffffffffffffff166302571be3846040518263ffffffff1660e01b81526004018082815260200191505060206040518083038186803b1580156103b157600080fd5b505afa1580156103c5573d6000803e3d6000fd5b505050506040513d60208110156103db57600080fd5b810190808051906020019092919050505073ffffffffffffffffffffffffffffffffffffffff16146104f3576000809054906101000a900473ffffffffffffffffffffffffffffffffffffffff1673ffffffffffffffffffffffffffffffffffffffff166306ab59237f91d1777781884d03a6757a803996e38de2a42967fb37eeaca72729271025a9e260001b83306040518463ffffffff1660e01b8152600401808481526020018381526020018273ffffffffffffffffffffffffffffffffffffffff1673ffffffffffffffffffffffffffffffffffffffff1681526020019350505050600060405180830381600087803b1580156104da57600080fd5b505af11580156104ee573d6000803e3d6000fd5b505050505b600073ffffffffffffffffffffffffffffffffffffffff168373ffffffffffffffffffffffffffffffffffffffff161415801561062b57506000809054906101000a900473ffffffffffffffffffffffffffffffffffffffff1673ffffffffffffffffffffffffffffffffffffffff16630178b8bf7f91d1777781884d03a6757a803996e38de2a42967fb37eeaca72729271025a9e260001b6040518263ffffffff1660e01b81526004018082815260200191505060206040518083038186803b1580156105c057600080fd5b505afa1580156105d4573d6000803e3d6000fd5b505050506040513d60208110156105ea57600080fd5b810190808051906020019092919050505073ffffffffffffffffffffffffffffffffffffffff168373ffffffffffffffffffffffffffffffffffffffff1614155b156106f1576000809054906101000a900473ffffffffffffffffffffffffffffffffffffffff1673ffffffffffffffffffffffffffffffffffffffff16631896f70a83856040518363ffffffff1660e01b8152600401808381526020018273ffffffffffffffffffffffffffffffffffffffff1673ffffffffffffffffffffffffffffffffffffffff16815260200192505050600060405180830381600087803b1580156106d857600080fd5b505af11580156106ec573d6000803e3d6000fd5b505050505b3073ffffffffffffffffffffffffffffffffffffffff168473ffffffffffffffffffffffffffffffffffffffff16146107e5576000809054906101000a900473ffffffffffffffffffffffffffffffffffffffff1673ffffffffffffffffffffffffffffffffffffffff16635b0fc9c383866040518363ffffffff1660e01b8152600401808381526020018273ffffffffffffffffffffffffffffffffffffffff1673ffffffffffffffffffffffffffffffffffffffff16815260200192505050600060405180830381600087803b1580156107cc57600080fd5b505af11580156107e0573d6000803e3d6000fd5b505050505b5092915050565b6000806107f833610b84565b90506000809054906101000a900473ffffffffffffffffffffffffffffffffffffffff1673ffffffffffffffffffffffffffffffffffffffff166306ab59237f91d1777781884d03a6757a803996e38de2a42967fb37eeaca72729271025a9e260001b83866040518463ffffffff1660e01b8152600401808481526020018381526020018273ffffffffffffffffffffffffffffffffffffffff1673ffffffffffffffffffffffffffffffffffffffff1681526020019350505050600060405180830381600087803b1580156108cd57600080fd5b505af11580156108e1573d6000803e3d6000fd5b505050507f91d1777781884d03a6757a803996e38de2a42967fb37eeaca72729271025a9e260001b81604051602001808381526020018281526020019250505060405160208183030381529060405280519060200120915050919050565b6000809054906101000a900473ffffffffffffffffffffffffffffffffffffffff1681565b7f91d1777781884d03a6757a803996e38de2a42967fb37eeaca72729271025a9e260001b81565b60007f91d1777781884d03a6757a803996e38de2a42967fb37eeaca72729271025a9e260001b6109ba83610b84565b6040516020018083815260200182815260200192505050604051602081830303815290604052805190602001209050919050565b60006109f9306107ec565b90506000809054906101000a900473ffffffffffffffffffffffffffffffffffffffff1673ffffffffffffffffffffffffffffffffffffffff16630178b8bf826040518263ffffffff1660e01b81526004018082815260200191505060206040518083038186803b158015610a6d57600080fd5b505afa158015610a81573d6000803e3d6000fd5b505050506040513d6020811015610a9757600080fd5b810190808051906020019092919050505073ffffffffffffffffffffffffffffffffffffffff16637737221382846040518363ffffffff1660e01b81526004018083815260200180602001828103825283818151815260200191508051906020019080838360005b83811015610b1a578082015181840152602081019050610aff565b50505050905090810190601f168015610b475780820380516001836020036101000a031916815260200191505b509350505050600060405180830381600087803b158015610b6757600080fd5b505af1158015610b7b573d6000803e3d6000fd5b50505050919050565b60007f303132333435363738396162636465660000000000000000000000000000000060285b6000811115610be05760018103905081600f85161a815360108404935060018103905081600f85161a8153601084049350610baa565b50602860002091505091905056fea165627a7a72305820b60a424161076bc076836cd26678f0d3e073ef21028d900869e111459883ecb20029",
  "source": "pragma solidity ^0.5.0;\n\nimport \"@rsksmart/rns-artifacts/contracts/registry/AbstractRNS.sol\";\nimport \"./NameResolver.sol\";\n\ncontract ReverseRegistrar {\n    // namehash('addr.reverse')\n    bytes32 public constant ADDR_REVERSE_NODE = 0x91d1777781884d03a6757a803996e38de2a42967fb37eeaca72729271025a9e2;\n\n    AbstractRNS public rns;\n\n    /// @dev Constructor\n    /// @param rnsAddr The address of the RNS registry.\n    constructor(AbstractRNS rnsAddr) public {\n        rns = rnsAddr;\n    }\n\n    /// @notice Sets the name record on that name to the specified name\n    /// @dev Sets the resolver for the name hex(msg.sender).addr.reverse to a default resolver\n    /// @param name The name to set for this address.\n    /// @return The RNS node hash of the reverse record.\n    function setName(string memory name) public returns (bytes32 node) {\n        node = claim(address(this));\n        NameResolver(rns.resolver(node)).setName(node, name);\n    }\n\n    /// @notice Transfer ownership of the name hex(msg.sender).addr.reverse\n    /// @dev Allows the caller to specify an owner other than themselves\n    /// calling account. The resulting account has `name()` resolver.\n    /// @param owner The address to set as the owner of the reverse record in RNS.\n    /// @return The RNS node hash of the reverse record.\n    function claim(address owner) public returns (bytes32 node) {\n        bytes32 label = sha3HexAddress(msg.sender);\n        rns.setSubnodeOwner(ADDR_REVERSE_NODE, label, owner);\n        node = keccak256(abi.encodePacked(ADDR_REVERSE_NODE, label));\n    }\n\n    /// @notice Sets the resolver of the name hex(msg.sender).addr.reverse to the specified resolver\n    /// @dev Transfer ownership of the name to the provided address.\n    /// @param owner The address to set as the owner of the reverse record in RNS.\n    /// @param resolver The address of the resolver to set; 0 to leave default.\n    /// @return The RNS node hash of the reverse record.\n    function claimWithResolver(address owner, address resolver) public returns (bytes32 node) {\n        bytes32 label = sha3HexAddress(msg.sender);\n        node = keccak256(abi.encodePacked(ADDR_REVERSE_NODE, label));\n\n        if (rns.owner(node) != address(this))\n            rns.setSubnodeOwner(ADDR_REVERSE_NODE, label, address(this));\n        // registrar owns the node, with default resolver\n\n        if (resolver != address(0x0) && resolver != rns.resolver(ADDR_REVERSE_NODE))\n            rns.setResolver(node, resolver);\n        // node has default resolver for 0x00 or resolver value\n\n        if (owner != address(this))\n            rns.setOwner(node, owner);\n        // owner owns node\n    }\n\n    /// @dev Returns the node hash for a given account's reverse records.\n    /// @param addr The address to hash\n    /// @return The RNS node hash.\n    function node(address addr) public pure returns (bytes32) {\n        return keccak256(abi.encodePacked(ADDR_REVERSE_NODE, sha3HexAddress(addr)));\n    }\n\n    /// @dev An optimised function to compute the sha3 of the lower-case\n    /// hexadecimal representation of an Ethereum address.\n    /// @param addr The address to hash\n    /// @return The SHA3 hash of the lower-case hexadecimal encoding of the\n    /// input address.\n    function sha3HexAddress(address addr) private pure returns (bytes32 ret) {\n        addr;\n        ret; // Stop warning us about unused variables\n        assembly {\n            let lookup := 0x3031323334353637383961626364656600000000000000000000000000000000\n\n            for { let i := 40 } gt(i, 0) { } {\n                i := sub(i, 1)\n                mstore8(i, byte(and(addr, 0xf), lookup))\n                addr := div(addr, 0x10)\n                i := sub(i, 1)\n                mstore8(i, byte(and(addr, 0xf), lookup))\n                addr := div(addr, 0x10)\n            }\n\n            ret := keccak256(0, 40)\n        }\n    }\n}\n",
  "sourcePath": "/Users/ilanolkies/code/rnsdomains/rns-reverse/contracts/ReverseRegistrar.sol",
  "compiler": {
    "name": "solc",
    "version": "0.5.8+commit.23d335f2.Emscripten.clang"
  },
  "schemaVersion": "3.0.10",
  "updatedAt": "2019-09-06T18:20:41.844Z",
  "devdoc": {
    "methods": {
      "claim(address)": {
        "details": "Allows the caller to specify an owner other than themselves calling account. The resulting account has `name()` resolver.",
        "params": {
          "owner": "The address to set as the owner of the reverse record in RNS."
        },
        "return": "The RNS node hash of the reverse record."
      },
      "claimWithResolver(address,address)": {
        "details": "Transfer ownership of the name to the provided address.",
        "params": {
          "owner": "The address to set as the owner of the reverse record in RNS.",
          "resolver": "The address of the resolver to set; 0 to leave default."
        },
        "return": "The RNS node hash of the reverse record."
      },
      "constructor": {
        "details": "Constructor",
        "params": {
          "rnsAddr": "The address of the RNS registry."
        }
      },
      "node(address)": {
        "details": "Returns the node hash for a given account's reverse records.",
        "params": {
          "addr": "The address to hash"
        },
        "return": "The RNS node hash."
      },
      "setName(string)": {
        "details": "Sets the resolver for the name hex(msg.sender).addr.reverse to a default resolver",
        "params": {
          "name": "The name to set for this address."
        },
        "return": "The RNS node hash of the reverse record."
      }
    }
  },
  "userdoc": {
    "methods": {
      "claim(address)": {
        "notice": "Transfer ownership of the name hex(msg.sender).addr.reverse"
      },
      "claimWithResolver(address,address)": {
        "notice": "Sets the resolver of the name hex(msg.sender).addr.reverse to the specified resolver"
      },
      "setName(string)": {
        "notice": "Sets the name record on that name to the specified name"
      }
    }
  }
}